S016000041435F4932435F4C61625F535032312E7333376A
S113000000000420C1010000ED010000ED0100002A
S1130010ED010000ED010000ED010000ED01000024
S1130020ED010000ED010000ED010000ED01000014
S1130030ED010000EC010000ED010000ED01000005
S1130040ED010000ED010000ED010000ED010000F4
S1130050ED010000ED010000ED010000ED010000E4
S1130060ED010000ED010000ED010000ED010000D4
S1130070ED010000ED010000ED010000ED010000C4
S1130080ED01000091250000ED010000ED010000EC
S1130090ED010000ED010000ED010000ED010000A4
S11300A0ED010000ED010000ED010000B92A00009F
S11300B0ED010000ED010000ED010000ED01000084
S11300C0ED010000ED010000ED010000ED01000074
S11300D0ED010000ED010000ED010000ED01000064
S11300E0ED010000ED010000ED010000ED01000054
S11300F0ED010000ED010000ED010000ED01000044
S1130100ED010000ED010000ED01000010B5054C0B
S1130110237833B9044B13B10448AFF300800123AF
S1130120237010BD9000002000000000E0370000A4
S113013008B5034B1BB103490348AFF3008008BD66
S11301400000000094000020E0370000154B002B55
S113015008BF134B9D46A3F5803A00218B460F46FA
S11301601348144A121A03F043FA0F4B002B00D021
S113017098470E4B002B00D0984700200021040024
S11301800D000D48002802D00C48AFF3008003F0A6
S11301900BFA2000290002F065FD03F0F1F900BF1D
S11301A0000008000000042000000000000000001F
S11301B09000002004010020000000000000000066
S11301C0064880470649074A074B9A42BEBF51F882
S11301D0040B42F8040BF8E7FFF7B8FF81020000B4
S11301E0EC3700000000002090000020FEE700BF74
S11301F000487047005A6202114BD3F8943003F060
S11302000703023B032B18D8DFE803F00D02141098
S11302104FF400400A4BD3F80031C3F304230133F5
S1130220B0FBF3F07047074B1868F3E7064B186808
S11302304008EFE7054B1868ECE7034B1868E9E75B
S113024000400E4004000020080000200C000020A4
S113025008B5FFF7D1FF054B054AD3F80831C3F3BE
S113026008230133B0FBF3F0106008BD00400E40DA
S113027000000020014B1868704700BF04000020F4
S1130280044B054A9A60D3F8882042F47002C3F8FC
S11302908820704700ED00E0000000004FF40040AB
S11302A0704700BF4FF47A70704700BF014B186865
S11302B0704700BF0C000020FEE700BF224B9842AD
S11302C03AD01AD9214B98423AD00CD8204B9842B4
S11302D025D003F5371303F5D86398422AD11D4B73
S11302E0D3F8A00070471C4B984214D01B4B984283
S11302F020D1184BD3F8B0007047194B984215D051
S113030011D9184B984211D0174B984212D1114B66
S1130310D3F88C0070470F4BD3F8AC0070470D4BEB
S1130320D3F89C007047114B984203D1094BD3F882
S11303308000704700207047064BD3F89800704740
S1130340044BD3F8A8007047405DC60080BA8C0106
S11303500024F400B081E00F0048E80180D5430296
S113036080841E0000093D00C0CF6A0040420F0097
S113037010B5C9B20024134B134A5B688C42234660
S113038008D00133052B02F1080213D012F8084CEF
S11303908C42F6D152F80C4C8442F2D30B4A02EB55
S11303A0C3035B791A0607494B6823F04073134370
S11303B04B6010BD40F653610548FFF77DFF4FF0D9
S11303C04072F0E700000E40483600003C36000062
S11303D02836000038B5074C41F67133256C236488
S11303E0FFF706FF0021FFF7C3FF0DB100232364CD
S11303F038BD00BF00000E4038B5054C41F67133DE
S1130400256C2364FFF7B4FF0DB10023236438BDCA
S113041000000E4030B4C0F30323013B092B43D842
S1130420DFE803F00D1542422F3D1D423705214CF4
S1130430C0F304302044800030BC016070471E4C7F
S1130440C0F304302044800030BC016070471B4C72
S1130450C0F304302044800030BC01607047184C65
S1130460C0F304301025174BD3F84421D207E1D44C
S1130470D3F840212A42FBD12044800030BC0160E3
S11304807047114CC0F304302044800030BC01603C
S11304907047C0F304300D4C4FF48035E3E7C0F3EC
S11304A004300B4C0125DEE741F2F231094830BC3F
S11304B0FFF702BF800AF2100000F2100006F210EB
S11304C04007F21000400E408005F2108007F21041
S11304D00007F2102836000008B5C0F30313013BEF
S11304E0092B53D8DFE803F00E20261452521A3099
S11304F03F053D4B984270D13C4BD3F8300100F09E
S1130500030008BD394BD3F80001C0F3042008BD33
S1130510364BD3F80C01C0F3082008BD334BD3F895
S11305200801C0F3082008BD304BD3F81401C0F310
S1130530042008BD2D4BD3F80001C0F30060431C18
S113054001209840013808BD294B98423CD0294BE2
S1130550984229D1254BD3F820310120C3F301134C
S11305609840013808BD244B984224D003F5B013B9
S113057003F58053984210D11C4BD3F82801C0F3E3
S11305800120031D01209840013808BD41F2EE51BD
S11305901A48FFF791FE002008BD41F2BA511748EE
S11305A0FFF78AFE002008BD41F296511348FFF779
S11305B083FE002008BD0D4BD3F828310120C3F37E
S11305C001139840013808BD084BD3F820310120AD
S11305D003F00F039840013808BD41F2C9510748A0
S11305E0FFF76AFE002008BDA009140000400E4079
S11305F08006160080162E0090171A002836000078
S113060008B500F00F00013807284AD8DFE800F0E9
S1130610121F2D49394149042F4BD3F85C3103F0A3
S11306203003202B4AD0302B52D0102B0CBF072084
S1130630012008BD284BD3F8943003F00703023B94
S1130640052B43D8DFE803F03A383640423E224BCC
S1130650D3F8800000F007000228EAD0042827D04D
S113066001280CBF0320012008BD1B4BD3F88430A4
S113067003F00703013B032B2CD8DFE803F01D1B19
S11306802119154BD3F8880000F007000228E5D1A2
S113069008BD114B1B6F13F0010F14BF0920072075
S11306A008BD41F642110D48FFF706FE002008BDC3
S11306B00A2008BD022008BD032008BD042008BD8F
S11306C0062008BD0C2008BD0B2008BD052008BD70
S11306D0082008BD012008BD00400E402836000057
S11306E038B52E4B984205460AD02D4B984207D078
S11306F02C4B984204D040F653712B48FFF7DCFD95
S11307002846FFF77DFF254B9D42044625D0244B08
S11307109D421CD0234B9D4213D040F68271224847
S1130720FFF7CAFD042C04D8DFE804F009332F21B5
S11307301D0040F6D4711C48FFF7BEFD002420467E
S113074038BD1A4BD3F8804004F00704EAE7174B8E
S1130750D3F8884004F00704E4E7144BD3F884404A
S113076004F00704DEE7BDE83840FFF79BBDFFF760
S113077043FD0E4BD3F80041C4F30064631C012411
S11307809C40B0FBF4F4204638BDBDE83840FFF788
S11307908DBDBDE83840FFF781BD00BF03002000D8
S11307A00500240002001E002836000000400E4010
S11307B038B500F47813B3F5B01F00F097801AD958
S11307C0B3F5101F00F09F804CD9B3F5401F2AD019
S11307D07FD9B3F5481F00F09B80B3F5781F4AD149
S11307E00546FFF709FD04462846FFF775FE01306C
S11307F0B4FBF0F038BDB3F5202F58D04FD9B3F582
S1130800602F1ED057D9B3F5801F28D0B3F5A01F91
S113081031D16848FFF764FF674BD3F8303103F0F8
S11308200303D84038BD6548FFF75AFF624BD3F83D
S11308302831C3F301231A1D01239340B0FBF3F0C5
S113084038BD5F48FFF7DCFE072808D009282ED002
S113085040F615515B48FFF72FFD002038BD5A4B79
S1130860186838BDB3F5F01F71D0B3F5001F69D017
S1130870B3F5D01F06D041F222515248FFF71CFDB8
S1130880002038BD4D48FFF72BFF4B4BD3F82821F0
S11308900123C2F301129340B0FBF3F038BDB3F56A
S11308A0003F64D0B3F5802F56D0002BE3D1BDE8D0
S11308B03840FFF7A1BCB3F5402FDCD1FFF79CFC17
S11308C03D4BD3F81431C3F304230133B0FBF3F0ED
S11308D038BDB3F5381FCED13C48FFF701FF364B86
S11308E0D3F82031C3F30113D84038BD3748FFF79C
S11308F0F7FE314BD3F82021012302F00F0293407D
S1130900B0FBF3F038BD2B48BDE83840FFF7E8BE34
S11309102F48FFF775FE0138072843D801A353F881
S113092020F000BF85090000A5090000A50900000A
S11309309D090000A5090000A50900005F0800004A
S1130940890900001D48BDE83840FFF7C9BE1F48AB
S1130950BDE83840FFF7C4BEFFF74EFC164BD3F892
S11309600C31C3F308230133B0FBF3F038BDFFF7B8
S113097043FC114BD3F80831C3F308230133B0FB14
S1130980F3F038BD002038BDFFF736FC0A4BD3F82E
S11309900031C3F3042303FB000038BDBDE8384035
S11309A0FFF768BC40F64C510648FFF785FC002071
S11309B038BD00BF0500240000400E4003002000A5
S11309C006000E00283600001000002002001E0061
S11309D0B80032002DE9F8430546FFF76FFC431ECB
S11309E00333064671D8DFF8CC811120D8F80070A3
S11309F0C8F80050FFF704FE052800F08180614B21
S1130A001C68002CFCD1721C74D05F4B9D426CD0CE
S1130A105E4B9D425FD05E4B9D4220D01120FFF77C
S1130A20EFFD052824D15B4B9D425BD95A49012037
S1130A308D428CBF4FF000714FF08071574B584A74
S1130A401860D2F8003123F080730B43BD42C2F822
S1130A5000310FD90121284600F0A4FE0AE026F057
S1130A60C06646F080661120FFF7CAFD052839D01C
S1130A70BD42EFD84A4B11201E61FFF7C1FD052886
S1130A8041D0FFF7B9FB434B98421CD9424B012498
S1130A9098428CBF4FF000734FF080733F49404A37
S1130AA00C60D2F8000120F080701843BD42C2F8F7
S1130AB0000103D80121002000F074FE1120BDE8DC
S1130AC0F843FFF79DBD0023E8E741F6D3513548CD
S1130AD0FFF7F2FB87E71120FFF792FD052826F0C8
S1130AE0C066C5D100200146A8E726F0C06646F0DE
S1130AF00076B8E741F6E4512A48FFF7DDFB84E7C6
S1130B00FFF768FC7BE7FFF7A3FB8542064632D379
S1130B10D8F80030B34226D39D4219D1224B1B682A
S1130B205B061BD5214BDFF890805968D8F84090BC
S1130B3041F671333046C1F30141C8F84030FFF744
S1130B4017FCB9F1000F9CD00023C8F8403098E797
S1130B5041F612611348FFF7AFFBDFE7144A13684D
S1130B60002BFCD1DEE741F611610E48FFF7A4FB30
S1130B70D8F80030D0E741F610610A48FFF79CFB33
S1130B80C6E700BF6028C84380841E0000093D00FA
S1130B9040420F000048E8010090D0034000C843E1
S1130BA000400E40283600003C300E4000300E401D
S1130BB0C800C6430800002000000E4010B50138EC
S1130BC00C4603284ED8DFE800F0203211027F29BA
S1130BD061D8344A04F07F041368002BFCD1324AF4
S1130BE0936923F07F031C43946110BD7F294CD883
S1130BF02E4A04F07F041368002BFCD12A4A13699F
S1130C0023F07F031C43146110BDB1F5007F36D27D
S1130C10274AC4F308041368002BFCD1224A136A40
S1130C2023F4FF7323F001032343136210BD1E4B0F
S1130C30D3F890305B071CD41B491E4B4A6A22F040
S1130C40300242F010024A62086BC4F3C31203324A
S1130C5003400F2A44EA030428BF0F2244EA027423
S1130C600C6310BD42F24A111348BDE81040FFF76F
S1130C7023BB42F230111048FFF71EFBDCE742F2BF
S1130C80F9010D48FFF718FBC2E742F206110A48C2
S1130C90FFF712FBACE742F221110748FFF70CFB08
S1130CA097E700BF6428C84300400E406028C8434B
S1130CB06828C84300F8FF0F2836000010B5022842
S1130CC00C4604D042F262111348FFF7F5FA134BB5
S1130CD05B6A13F0300F0BD0202C19D0302C07D0C6
S1130CE034B142F27D110C48FFF7E6FA0C4A01E0F8
S1130CF04FF440020949D1F8903032EA0303FAD1A3
S1130D0053024ABFD1F8A0000120C0F3802010BDD7
S1130D104FF40002EEE700BF2836000000400E400A
S1130D20FF33E107F0B583B004460E4604287FD8AC
S1130D30DFE800F003595F7953004FF400754FF476
S1130D40807708234FF0090C96B9012098404A494E
S1130D500D66D1F890300342FBD13AB101224649E5
S1130D6002FA0CF2D1F890301342FBD103B0F0BD7B
S1130D7042491944890000263F4B1F660B68002B2B
S1130D80FCD0002AF2D03D4D6544AD002B68002B09
S1130D90FCD0022CEAD1002EE8D0374A516A11F077
S1130DA0010165D04FF480632021C2F8A8302046A9
S1130DB05166FFF783FF304CD4F89C600122002178
S1130DC00220FFF7AFFFC6F30A010220FFF7F6FE89
S1130DD027662B68002BFCD0C8E7202510270423A6
S1130DE04FF0050CB0E78025402706234FF0070C91
S1130DF0AAE7002937D0204B5B6A13F0300F1FD1CC
S1130E001F4BDB6B580526D51B4B596AC9071DD5EB
S1130E10586A1C4920F0300040F010005862042742
S1130E204FF0030CA8E70127BC46022500238BE7FB
S1130E30154842F2470103B0BDE8F040FFF73CBA61
S1130E40104904274FF0030C002695E70D490427A9
S1130E504FF0030C90E742F256010B480192FFF762
S1130E602BFA019AD0E7042008254FF0030C6EE713
S1130E702046FFF723FF9EE700400E408004F21057
S1130E8000300E400812C84328360000F8B5112877
S1130E900C460AD000F00F000138072863D8DFE8B9
S1130EA000F0093F43621B286231042900F092805C
S1130EB005293BD00025023C0A2C00F22A81DFE8F8
S1130EC014F0FB00FE000801150128012801280187
S1130ED028010101B400F90006299A4D57D0013CBC
S1130EE0092C47D8DFE804F03D362F4646584646DD
S1130EF0462C072900F01781092972D1924B01224F
S1130F001A67F8BD4C1E072C00F2FC80DFE814F0D1
S1130F108B00FA00FA008400FA00FA007D007300E6
S1130F2006292ED0894DDAE7894DD8E7894A8A4BBC
S1130F3015689D42BED90021284600F033FCBAE76B
S1130F4004232B60F8BD012211461046FFF7EAFE88
S1130F500123F6E7012211460020FFF7E3FE0223F6
S1130F60EFE70023EDE741F641417C48BDE8F84056
S1130F70FFF7A2B941F682217848BDE8F840FFF7AF
S1130F809BB941F647217548704DFFF795F97348B1
S1130F9041F65721FFF790F9FFF72EF9704B98426D
S1130FA026D9704B012498428CBF4FF000734FF048
S1130FB080736D49644A0C60D2F8000101F5AE51AA
S1130FC0083120F0807018430124C2F80001032383
S1130FD00C60B6E7FFF74EF9054600283FF46AAF08
S1130FE0A9E741F60C315D48BDE8F840FFF764B964
S1130FF000231C46DDE73021534AD2F85C3123F04C
S113100030030B43C2F85C31F8BD012211460420C1
S1131010FFF788FE1021EFE7012211460220FFF7B7
S113102081FE2021E8E70021E6E7032005240122D0
S11310301146FFF777FEFFF7CDF91DB14B4B1B6847
S11310405A0679D5404B5C67FFF702F90646FFF76D
S1131050D3F8434B984263D9424B012498428CBF46
S11310604FF000734FF080733F49374A0C60D2F859
S113107000013E4920F080701843C2F800010B685B
S11310805B0654D53A4B3B4C5968276C41F6713397
S11310903046C1F301412364FFF76AF90FB100231D
S11310A02364002D7FF42DAF28460121BDE8F840CC
S11310B000F078BB0724BEE700200424B7E7012032
S11310C00324B4E741F603212448BDE8F840FFF7C0
S11310D0F3B8254B1C4A01211960D2F800310220D3
S11310E043F08073C2F800310446A0E71E4B164A51
S11310F001241C60D2F8003143F08073C2F800313F
S1131100032094E741F66A311448BDE8F840FFF73C
S1131110D3B841F608211148BDE8F840FFF7CCB830
S113112000231C46A0E7084B00221A67F8BD124AA8
S11311301368002BFCD1A5E70F4A1368002BFCD1E0
S113114080E700BF88400E4000400E4080400E40C3
S113115084400E4008000020002D31012836000094
S11311600048E8010090D0034000C8433C300E40E2
S113117000300E4000000E40C800C64338B5044697
S11311801120FFF73DFA04284DD00122002102204E
S1131190FFF7C8FD637813B9A378002B36D041F666
S11311A02F712448FFF788F8217C012934D0224A82
S11311B02248536A257823F00103022908BF43F02B
S11311C0010353620560A388617AE58841EAC3217B
S11311D0D162136B207AA17A03F07F630B43C11CA5
S11311E043EAC5230F2943EAC01328BF0F2143EA6A
S11311F001731363A37B657BE07B217B1B0143EAC3
S11312000533034343EA0143536338BDE378002BBA
S1131210C5D1217C0129CAD141F634710548FFF7B3
S11312204BF8217CC3E741F6F1610248FFF744F82B
S1131230ABE700BF2836000000400E40A004C843BE
S1131240EFF3108072B6704700B962B6704700BF02
S113125038B542EA032340F20112934205460C4694
S113126060D0B3F5817F14D340F20122934250D071
S113127030D9B3F5407F24D040F2013293423ED1BD
S11312802D4BD3F878311A0EC3F307432B60226039
S113129038BD012B2AD00BD3B3F5807F2FD1264B39
S11312A0D3F86C311A0EC3F307432B60226038BDA8
S11312B0214BD3F86C31C3F30722DBB22B602260DD
S11312C038BD1D4BD3F870311A0EC3F307432B609E
S11312D0226038BDB3F5007F11D1174BD3F87031BC
S11312E0C3F30722DBB22B60226038BD124BD3F864
S11312F07431C3F30722DBB22B60226038BD40F6A1
S113130004110E48FEF7D8FF002213462B6022601A
S113131038BD094BD3F87831C3F30722DBB22B6015
S1131320226038BD044BD3F874311A0EC3F307435B
S11313302B60226038BD00BFB081E00F643600002E
S1131340044B1B69C3F30443082B02D1024B034A29
S11313501A60704700400E4008000020C0EA2101D6
S113136010B51C4B02280C46D3F8803120D003283A
S11313701CD0012814BFDBB2C3F307231B0323F4DF
S1131380704244B9BAB91449CA6E22F47042134384
S1131390CB66012010BDAAB90F49D1F8EC2022F484
S11313A070421343C1F8EC30012010BD1B0EE5E779
S11313B0C3F30743E2E740F693010848FEF77CFFD6
S11313C0204610BD40F69F010448FEF775FF00203B
S11313D010BD00BFB081E00F00300E406436000045
S11313E00E4B1A6852060FD41B685B0611D50C4BC2
S11313F019685A68C1F30121C2F3014291421A6883
S113140003D822F010021A60704742F010021A60EA
S11314107047044A1368002BFCD1E8E73C300E40C7
S113142000300E40C800C64308B50F4A0F4BD2F82F
S113143090201A601120FFF7E3F80D4B0D4A1B684A
S113144010705B060AD50C4B0C485B6806490C4AC5
S1131450C3F3014303700B69136008BD094A1368A1
S1131460002BFCD1EFE700BF00400E40AC00002091
S11314703C300E40B600002000300E40BD0000207D
S1131480B8000020C800C64370B52E4B1B685B062D
S113149007D42D4B2D491A781023C2F10202934030
S11314A00B612B4B2B4DD3F88041264945F60E0298
S11314B0C3F88021286840F2551202401A660B686E
S11314C05E0604F0010426D5204B1B68D80617D508
S11314D01F4AD2F84031D901FBD41F4E1F4B31783B
S11314E01B68136105291BD01120FFF7CFFC2B6863
S11314F0DB070CD51CB1164B0022C3F8802170BD4C
S1131500154E31780529EFD12B68DB07F2D4104B47
S113151002221A66EEE7124A1368002BFCD1D3E7C5
S1131520084B104A1B6810685A0606D5074B5968C1
S1131530C1F30141FEF760FFE3E7094A1368002B9A
S1131540FCD1F3E73C300E40BD00002000300E40DB
S113155000400E40AC000020B6000020B80000207F
S1131560C800C64308000020704700BF704700BF92
S113157010B5044678BBFFF733FF184A136943F0EC
S113158004031361FFF7F0FF154B1B68DA061BD445
S113159030BFFFF7EBFF7CB9114B1B68DB0608D4A7
S11315A0104A136823F000431360BDE81040FEF7AF
S11315B04FBEFFF7C5FEF3E7FFF766FF094A13685E
S11315C023F00043136010BDFFF73AFE02F028F841
S11315D0FFF73AFEDDE7FFF727FFCCE700ED00E079
S11315E000300E404C310E4010B5044600283ED168
S11315F0FFF7F6FE1F4BD3F880214FF4207145F618
S11316000E00C3F880011966D10744BF0022C3F855
S11316108021194A136943F004031361FFF7A4FFFF
S1131620164B1B68DA061BD430BFFFF79FFF7CB94B
S1131630124B1B68DB0608D4114A136823F00043DD
S11316401360BDE81040FEF703BEFFF779FEF3E731
S1131650FFF71AFF0A4A136823F00043136010BD12
S1131660FFF7EEFD01F0DCFFFFF7EEFDDDE7FFF72E
S1131670DBFEBDE700400E4000ED00E000300E4010
S11316804C310E402DE9F843294B1A68550632D4E3
S11316901B685C0631D5274E7368C3F30143984237
S11316A029D0254B0446D3F800810D46FEF7A4FD4E
S11316B0C4F102071023022C814603FA07F70CD069
S11316C037611DB11A4B1B685A0625D59CB92146B2
S11316D04846BDE8F843FEF78FBEC8F30428174B0D
S11316E008FB000898451CD802214846FEF784FEF2
S11316F0104B1F6165B9BDE8F883114A1368002BCC
S1131700FCD10C4E7368C3F301439842C9D1F2E78C
S1131710074B1B685B06EED4094A1368002BFCD107
S1131720D4E740F2E1510748FEF7C6FDDCE700BF0D
S11317303C300E4000300E4000400E40002D310180
S1131740C800C6436436000040B1134B1B7813B184
S1131750124B98421BD90020FFF794BF10B582B0FA
S11317600F4B0191D3F80041FEF746FD0A4B019956
S11317701B78C4F3042404FB000013B1074B984204
S113178008D9002002B0BDE81040FFF77BBF02205B
S1131790FFF778BF0220F5E7BC000020002D3101DF
S11317A000400E40034B1B685B0601D4FFF7CCBF1F
S11317B0704700BF3C300E40094942780B6823F45F
S11317C0407343EA0223022A0B6000D07047054BA2
S11317D05B6A9B00FAD540F21D610348FEF76CBDBD
S11317E000300E4000400E406436000010B4244A1D
S11317F04AF6E853546B5363936FDB07FCD4136CC2
S113180013F0030322D01F4A0121834211601AD02E
S1131810032B02D1431E012B1FD9194A936FDB07F7
S1131820FCD4136C164923F00303034313648B6F36
S113183013F00103FBD10030124A18BF0120012C20
S1131840106000D14B635DF8044B70470028E1D170
S11318500C4B5DF8044B18607047094A4FF40023A1
S1131860D362936FD907FCD4136C054923F00303A7
S113187043F0010313644B6A1A03FCD5CDE700BFA0
S113188000300E40B40AC6432DE9F04F89B0044637
S1131890A0F5E1600025B0F5966F0191CDE9025500
S11318A0CDE90455CDE9065500F284805D4BB4F5CD
S11318B0E16F9346D3F868318CBF4FF001084FF0C5
S11318C0000863D1C3F30722DBB2079204934FF4F9
S11318D016794FF4966A544FFD6CC5F3017505A94A
S11318E002A82B464246FFF7B3FCD7F8EC60C6F3D8
S11318F001264246334606A903A8FFF7A9FC049A29
S11319000798A4EB0A01831A01FB03F3B3FBF9F371
S1131910D3182CBF01220022984241D3002A3FD180
S11319200698DDF80C80A0EB080201FB02F2B2FB82
S1131930F9F218EB02082CBF0122002240452FD3F4
S113194072BB059A0298A2EB000C01FB0CF1B1FBEF
S1131950F9F910EB09092CBF012100214A451FD3D5
S1131960F1B9BBF1000F0DD0FA6D22F4FE4222F062
S1131970020242EA0323B4F5E16F2B4A18BF43F095
S11319800203D365019BF3B901250FE01A0EC3F3DB
S11319900743079204934FF496694FF4E16A9AE778
S11319A040F68D212148FEF787FC0025284609B022
S11319B0BDE8F08F40F63F211C48FEF77DFC284629
S11319C009B0BDE8F08F28460021FFF7C9FC0546A1
S11319D0E0B130460121FFF7C3FC0546E0B1124AED
S11319E0536EC14538BFC14623F4FF73B9F1E70F05
S11319F023F0010328BF4FF0E709B4F5E16F18BFE6
S1131A0043F0010343EA49035366CFE740F69C21C0
S1131A100648FEF751FCC9E740F6A4210348FEF747
S1131A204BFCC3E7B081E00F00300E406436000089
S1131A3038B53B4B1A6FD96CCC0702F007020BD5B3
S1131A40012A55D9132850D9143813288CBF4FF4C0
S1131A507F414FF4EE410CE0D96CCD073FD4012A0D
S1131A6053D9DB6C2F4840F6E221FEF725FC6FF0DA
S1131A70FF012B482C4AC36C2C4C23F47F430B43AB
S1131A80C364C16C1388C26CC1F3032101312833D0
S1131A9001EB810503EB5303B3FBF5F3013B072B88
S1131AA022F0EE6228BF072342F4801242EA036365
S1131AB0B4F90020C364002A10DB036D4C082832FB
S1131AC004EB410102EB520223F07004B2FBF1F388
S1131AD0072B28BF072344EA0313036538BDDB6CD7
S1131AE0DC07BFD5012ABDD808E04FF44C51C0E74C
S1131AF0DA6CD20709D5DB6CDB07B3D527288CBF9A
S1131B004FF47F414FF4EE41B3E70928EDD90A3889
S1131B1009288CBF4FF47F414FF4EE41A9E700BF81
S1131B2000300E4064360000B2000020B4000020F3
S1131B3010B50B4B1B68044633B9012804D940F691
S1131B4001310848FEF7B8FB074B084A186F20F02C
S1131B50070020431867BDE810401088FFF768BFEE
S1131B608009C6436436000000300E40B0000020F7
S1131B7070B56B4B02229A639B6B03F00F03934285
S1131B8022D10389C82B044600F28780A2889A4296
S1131B9000F28D80B4F90C30C82B00F39280637886
S1131BA0012B6DD0022B00F0B180E38842F2107259
S1131BB0934200F2A4804A2B0ED9B3F5FA7F80F049
S1131BC08A804FF0805008E040F6A6115548002561
S1131BD0FEF772FB284670BD00205149B4F90C6031
S1131BE0CB6C514D514A23F0405323F00103002E96
S1131BF0A8BF43F001030343CB64D1F8EC30A088C1
S1131C0043F44073C1F8EC30CB6E288043F080730A
S1131C10CB66106800282FD1FFF78AFF444B454953
S1131C202589B4F90C20A0881A800D80FFF700FFE5
S1131C30A37B002B5FD0012B2BD040F64401394805
S1131C40FEF73AFB012211466088FFF71DFE0546A8
S1131C50002849D0324A6078D36B43F48063D3635D
S1131C60FFF7C4FDA37A344AA3F12003B3FA83F344
S1131C705B091360284670BD0420FFF759FFCDE7C8
S1131C80A388C82B91D940F6B6112648FEF714FB59
S1131C908BE7234B294A9A65D4E74FF41B6121480B
S1131CA0FEF70AFB2389A2889A427FF673AF40F6B7
S1131CB0B1111C48FEF700FBB4F90C30C82B7FF7B8
S1131CC06EAF40F6B2111748FEF7F6FA6378012BAF
S1131CD07FF468AFD4E740F6C31083428CBF4FF063
S1131CE040504FF0005078E740F6FA110D48FEF7E7
S1131CF0E3FA284670BD0A4B114A9A65A2E740F6FA
S1131D00C3110848FEF7D8FAE38854E7A3880A2BDE
S1131D107FF64BAF40F6BB110248FEF7CDFA44E71D
S1131D2000300E4064360000B00000208009C64335
S1131D30B4000020B20000209407C643372110B736
S1131D407740205738B5032804460D461BD904288C
S1131D5005D0052817D0A0F10803022B13D982213E
S1131D600B48FEF7A9FA04EB4400000100F180409F
S1131D7000F5204000F1806300F1C0604FF00112D3
S1131D801A60056038BD35F00113E8D1EBE700BFF8
S1131D90783600002DE9F0410D4617469846044672
S1131DA0E8B1012800F0B480022800F0F480032890
S1131DB000F0EE80042800F0A580052800F02181C1
S1131DC0831F012B40F29E80082800F029810928F6
S1131DD000F031810A2840F09580072301E040F2A9
S1131DE0FF332B41DE0740F18D80002F3CD166008C
S1131DF0072D25D833191B0103F1804303F5204334
S1131E00A9005A680F20884022EA000207FA01F16B
S1131E100A435A6097B9B8F1000F57D1002C7AD110
S1131E2040F2FF332B41DB0740F1B8808D4B344443
S1131E3024012344012202FA05F51D60BDE8F08166
S1131E403119090101F1804101F5204105F180407A
S1131E5008388B6880000F22824023EA020307FAC5
S1131E6000F018438860D5E7B8F1000F10D0002CBB
S1131E7068D140F2FF332B41D80740F195806600CA
S1131E80794B3219120113440122AA401A60AFE7B8
S1131E90002C6CD0012C00F0AB80022C00F0B4803C
S1131EA0032C00F09680042C00F08480052C00F0B4
S1131EB0B980A31F012B7DD9082C00F0C380092C05
S1131EC000F0C7800A2C75D1072352E0002C57D0AC
S1131ED0012C00F09080022C00F09C80032C7ED01A
S1131EE0042C6DD0052C00F0A380A31F012B67D90F
S1131EF0082C00F0A580092C00F0AE800A2C5FD1DC
S1131F0007233FE040F21B115848FEF7D5F96CE770
S1131F104FF6C07365E7012C64D0022C6ED0032CFD
S1131F2054D0042C3AD0052C77D0A31F012B35D9DB
S1131F30082C00F08380092C00F088800A2C2DD115
S1131F4007236FE7012C50D0022C60D0032C43D020
S1131F50042C29D0052C68D0A31F012B24D9082CCC
S1131F6072D0092C7BD00A2C1ED1072383E740F2C0
S1131F70FF332B41D9071DD566003219394B81E750
S1131F8040F2FF332B41DA071AD53444364B4FE77E
S1131F904FF47F4325E740F6FF7322E74FF4777150
S1131FA03348FEF789F941E740F20B413048FEF728
S1131FB083F964E74FF477712D48FEF77DF9DBE789
S1131FC040F20B412A48FEF777F9DEE74FF47F43EE
S1131FD028E74FF47F43CCE74FF47F434BE74FF4BC
S1131FE07F43CFE74FF6C0731CE74FF6C07342E759
S1131FF04FF6C073BDE74FF6C073C3E740F6FF73F7
S113200010E74FF6FF73ECE640F6FF73B1E740F6D6
S1132010FF7330E740F6FF73B4E74FF6FF7301E751
S11320200F23DEE64FF6FF73A3E74FF6FF7322E7B5
S11320304FF6FF73A6E74FF44043D2E60F23F1E6D1
S11320400F239FE70F2394E70F2314E74FF4404334
S1132050E8E64FF440438CE74FF4404392E74FF4F3
S1132060404308E70CA000440CA00046783600006A
S11320708C360000002A54D0F8B50F460168054696
S113208003F0030621F4407100F1C063144600F12B
S11320908062296030024FF440711160186057B9B2
S11320A02F4B9D4256D02F4B9D4243D04FF49771F6
S11320B02D48FEF701F92B689A071ED5032E35D15A
S11320C040F263112848FEF7F7F8284B9B5D04FBA8
S11320D003F3FBB16FEAC4041C443C44B4FBF3F4C3
S11320E0013C2CD4B4F5007F2ED22B689B0702D57B
S11320F0002C08BF01242C61F8BD032EE0D01C4B3A
S113210053F826309F42DBD9184B9B5D04FB03F345
S1132110002BDFD14FF4BA711348BDE8F840FEF745
S1132120CBB84FF48A711048FEF7C6B8114B53F878
S11321302630E7E71048FEF73BFB0746BBE74FF4C2
S1132140BD710948FEF7B8F840F27B110648FEF766
S1132150B3F8CAE70948FEF72BFB0746ABE700BF15
S113216000C0004000C40040083700001C370000D5
S1132170FC360000F03600000092040000820400E7
S113218038B5094B984204460D4608D003F58063E0
S1132190984204D04FF4CA710448FEF78DF804F154
S11321A004746401256038BD00C000400837000095
S11321B070B5124B984204460D4608D003F580636F
S11321C0984204D040F2A9110D48FEF775F86978D9
S11321D00C482B7B620102F18442002681F001014C
S11321E02664E0635160D5E901122046FFF742FFFF
S11321F029782046BDE87040FFF7C2BF00C0004008
S113220008370000FFFF070038B50A4B9842044620
S11322100D4604D04FF489710748FEF74DF8636BFF
S11322209B07FCD415B90223636038BD01236360A6
S113223038BD00BF006004402037000070B5234B58
S1132240984205460C4604D040F26F112048FEF730
S113225033F8217811B9AB68DE0728D46278A07806
S1132260E368002A14BF4FF48052002228BB4BBB02
S1132270E3780BB142F4807223790BB142F040024F
S113228063790BB142F08002E379A679207A1B01CD
S113229043EA8603034313432B6039B1AB68DA077F
S11322A004D46B6B9B07FCD401236B6070BD6B6B18
S11322B09807FCD402236B60D0E742F40072002B31
S11322C0D6D001E042F400722B61D1E700600440F3
S11322D02037000070B588B00C4D0D4801230F2243
S11322E000264FF4706401A98DF804308DF8053090
S11322F08DF810308DF81C308DF81D30CDE9026555
S1132300CDE9054200F05EFA08B070BDDDFB0500C2
S113231000C0004000B583B0054A06480123CDE95A
S113232000234021F52200F007F903B05DF804FB17
S1132330C000002000C0004008B50C4B186800F035
S113234073FE00220A4B00F0E9FE0022094B00F064
S1132350E5FE0022084B00F029FD01F0F1F807EE3C
S1132360900AF8EE677A17EE900A08BDC0000020C4
S113237000405F400000F03E0000184070B58CB093
S113238000F086F8184D00F0A3F800F0D9FB00F037
S1132390FBFB1649049100231C224FF07A51284676
S11323A001248DF800308DF801308DF80C308DF853
S11323B00D308DF818308DF820300192022304225C
S11323C005914FF4E05669460B92099302968DF8F5
S11323D02840079400F0CAFAFFF77CFF21462846FC
S11323E000F09CFA0CB070BD006004406666E63FE5
S11323F008B5012000F0B2FB74210248BDE8084092
S1132400FDF75ABF3837000008B5022000F0A6FBDC
S113241085210248BDE80840FDF74EBF383700006B
S113242008B500F0ABFB430703D495210548FDF73D
S113243043FF042000F092FB0820BDE80840FFF7AA
S113244069BF00BF3837000008B500F097FB0307E9
S113245012D5082000F082FBFFF76EFF07EE100A8A
S1132460F3EE0E7AB4EEE77AF1EE10FAACBF054B58
S1132470054B20221A6008BDA5210448FDF71CFF66
S1132480E7E700BFFCA00046FCA00044383700008A
S113249008B501210B48FDF7BDFF002211460120BC
S11324A0FEF740FC002211461046FEF73BFC0A21D1
S11324B00548FEF7EBFC01210448BDE80840FDF7A0
S11324C0A9BF00BF4041050002001E0030253E00A8
S11324D010B501211748FDF79DFF00210520FFF7E6
S11324E031FC0422114600230520FFF753FC002190
S11324F00520FFF727FC0521084600230422FFF7E7
S113250049FC4FF001110120FFF71CFC0123184680
S113251004220A21FFF73EFC012308220B2102209A
S1132520FFF738FC012308220A210220BDE81040ED
S1132530FFF730BC00350A002DE9F041114C9DF83D
S11325401C70D4F808C01CF0E00F04460D46164673
S1132550984603D02C210C48FDF7AEFE022000F073
S11325601DFB0A4B6A00C3E9014500200121069DB9
S1132570DE6083F810805D611F7618606160E2623E
S1132580BDE8F08100C0004054370000C4000020C2
S113259070B5894B5C6B1A6C14406106DC631FD404
S11325A004F0800646BBA30604F480760BD406B977
S11325B070BD824D2B68052B00F28580DFE803F0A7
S11325C0342D53267C687D4D2B68052B00F2E18069
S11325D0DFE813F09800A100D600670050008F00D8
S11325E0764D2B6804F08006052B00F2DB80DFE8D3
S11325F003F0B4229BA5AAAF704D2B68052B00F203
S1132600D680DFE803F06CB2B796716740F23F11F1
S11326106B48BDE87040FDF74FBE40F23511684885
S1132620BDE87040FDF748BE4FF498716448BDE8BA
S11326307040FDF741BED5E901235B0043F001037F
S11326400120022150602960D362002EABD001200A
S113265050600221D362A206296004F4807600F15E
S11326608F80002EA4D04FF49D715548BDE8704072
S1132670FDF722BE6B686969D8690A6802430A607B
S11326800824022005225C602A605860002E8FD046
S1132690022000F09DFA082000F058FA00232B6075
S11326A070BD69686869CB6904221B0203604A60D3
S11326B02A60002E3FF47CAF4FF4A2714048BDE87D
S11326C07040FDF7F9BD4FF4A7713D48BDE8704077
S11326D0FDF7F2BDF6213A48FDF7EEFD63E7DB2195
S11326E03748FDF7E9FD5EE7F1213548FDF7E4FDE4
S11326F059E74FF491713248FDF7DEFD002E3FF4A7
S113270057AF56E74FF482712D48FDF7D5FD002EE3
S11327103FF44EAF4DE740F209112948FDF7CCFDD7
S1132720002E3FF445AF44E703232B60002E3FF413
S11327303AAFEC212248FDF7BFFD34E7C22120481F
S1132740FDF7BAFD2EE7C7211D48FDF7B5FD29E7C2
S1132750CC211B48FDF7B0FD24E76B68EA68DA6218
S113276001232B60002E3FF41EAFE0211448FDF737
S1132770A3FD18E7D5E901235B0043F0010366E7F5
S11327804FF487710E48FDF797FD002E3FF410AF0C
S11327900FE74FF493710A48FDF78EFD002E3FF4C6
S11327A007AF06E7D0210648FDF786FDFAE6FA21D1
S11327B00348FDF781FDF6E600C00040C400002098
S11327C05437000030B585B04E4B984204460D4650
S11327D000F093804C4B984200F0858058214B4880
S11327E0FDF76AFD636B13F0010F4FF0010339D15C
S11327F0A363636BD9077BD50123E3632B7B297820
S1132800A8686A788DF80C308DF800106B68029017
S1132810694620468DF801200193FFF7C9FCD5E9EC
S11328200420297E6B7E024343EA4103A26463646D
S11328300022216C2264636BE36340220323626001
S11328406360636BDB05FCD52E4B626BE2639C42D9
S11328504FF020022164626029D02B4B9C420AD0A5
S113286005B030BDE363636BDA07C7D56121274840
S1132870FDF722FDC2E74023E363236C244A43F0BF
S1132880400380212364E163236C4FF4807143F09F
S113289080032364E163236C0B432364236C4FF4B0
S11328A0806143F020032364516005B030BD4023B0
S11328B0E363236C164A43F0400380212364E163FD
S11328C0236C4FF4807143F080032364E163236C31
S11328D00B432364236C4FF4003143F0200323643F
S11328E0116005B030BD01210A48FDF793FD79E779
S11328F05D210648FDF7E0FC7EE701210648FDF76F
S113290089FD6FE700C0004000C400405437000058
S113291000E100E0009204000082040038B58368FE
S1132920DB0704460D4600D481B9A36885F0010590
S11329301D4200D138BD20460021FFF765FC04206C
S113294000F02CF9636B002BFCD138BD0121FFF79B
S11329505BFC042000F022F9636B002BFCD1A3681C
S113296085F001051D42E5D0E5E700BFF0B585B06F
S113297091ED047ADFED486AD1ED057A474B27EEF5
S1132980267A67EEA67ABCEEC77AFCEEE77A98421E
S11329900D46044617EE107A17EE906A77D00021A0
S11329A02046FFF7BBFF01236360636B002BFCD160
S11329B0A368DA0766D502236360636B002BFCD13E
S11329C001202978E3608DF80330ADF804308DF8E8
S11329D008306A788DF8020003238DF80110204630
S11329E069468DF800208DF806308DF80730FFF722
S11329F025FC636B002BFCD1D5E90123687B27619F
S1132A001A432B7B6661482143EA4003287EA16177
S1132A104921E1616264E969236430B1A36A23EA6C
S1132A200103A362E36A0B43E36295F820706A6AC8
S1132A3095F82860EB6A07B3A06A20EA0200A06256
S1132A40E06A1043E06236B1A06A20EA0300A062A3
S1132A50E06A1843E06212484FF000650560114DCA
S1132A60A06829601049114C0B60C307226002D58D
S1132A70042000F093F805B0F0BD002EE4D1002846
S1132A80EDD0E8E75D210A48FDF716FC93E7012144
S1132A900848FDF7BFFC82E700007A440060044068
S1132AA000E100E0E0000020E8000020E400002055
S1132AB0703700008006160038B5FEF7C1FB1B4BCB
S1132AC01C6ADA6A1440E20705469C6206D51B6A52
S1132AD0DB0721D4164B186800F038F8A00707D597
S1132AE0124B1B6A99071CD4124B186800F02EF87D
S1132AF0620707D50D4B1B6A5B0708D40E4B186899
S1132B0000F024F82846BDE83840FEF79DBBF021CC
S1132B100A48FDF7D1FBF1E7E6210848FDF7CCFBB5
S1132B20D8E7EB210548FDF7C7FBDDE7006004406B
S1132B30E0000020E4000020E800002070370000DE
S1132B40014B00221A607047EC000020024A13680F
S1132B5018431060704700BFEC00002010B5044615
S1132B60FEF76EFB044A136823EA0403BDE8104031
S1132B701360FEF769BB00BFEC000020014B18682E
S1132B80704700BFEC000020034B0022C3E9002281
S1132B90C3E902221A617047F000002038B50446E8
S1132BA0FEF74EFB084A52F824300133052B054644
S1132BB042F8243003DD5B210448FDF77DFB284601
S1132BC0BDE83840FEF740BBF0000020903700001D
S1132BD038B50446FEF734FB0B4A52F82430013B67
S1132BE0002B054642F8243004DB2846BDE8384073
S1132BF0FEF72ABB05487421FDF75EFB2846BDE8B5
S1132C003840FEF721BB00BFF000002090370000E1
S1132C1010B5FEF715FB114B1A68002A044604DDB3
S1132C202046BDE81040FEF70FBB5A68002AF7DCC7
S1132C309A68002A06DD0A4A136923F00403136123
S1132C4030BFEDE7DB68002B4FF0010002DDFEF73B
S1132C508FFCE5E7FEF7C8FCE2E700BFF0000020C8
S1132C6000ED00E0F0B58BB0454C464F94E80F0002
S1132C7001AE103486E80F000FCC05AD0FC52268F5
S1132C802A80414B01227A64DB6C1B0E74D13F49CC
S1132C903F484AF6E8520A60026842F004020260C1
S1132CA00B603C4A136843F4005313603A493B4AAF
S1132CB00B6A23F4441343F488130B62136843F43C
S1132CC0F84313600024304602258DF800408DF847
S1132CD00140FEF74DFF68468DF80150FEF76CFD8C
S1132CE005A8FEF74BFA2E48FDF774FE01221146A3
S1132CF00320FEF717F805211120FEF7C7F8224636
S1132D0021462846FEF70EF8FFF738FB12E0FFF7DE
S1132D1035FF40071BD4FFF731FFC1071DD4FFF770
S1132D202DFF82071FD4FFF729FF030721D4204674
S1132D30FEF78AFAFEF784FA0446FFF71FFF00281D
S1132D40E5D1FFF765FFFFF719FF4007E3D5FFF76C
S1132D5067FBFFF713FFC107E1D5FFF749FBFFF757
S1132D600DFF8207DFD5FFF74FFBFFF707FF0307D0
S1132D70DDD5FFF769FBDAE7012B97D191E700BFB7
S1132D80B837000000000E40B081E00F90310E40D3
S1132D9098310E4064310E4000400E40A4310E4084
S1132DA0C0EA210181F0004102E000BF83F000434A
S1132DB030B54FEA41044FEA430594EA050F08BFD2
S1132DC090EA020F1FBF54EA000C55EA020C7FEA96
S1132DD0645C7FEA655C00F0E2804FEA5454D4EB13
S1132DE05555B8BF6D420CDD2C4480EA020281EADD
S1132DF0030382EA000083EA010180EA020281EA15
S1132E000303362D88BF30BD11F0004F4FEA013166
S1132E104FF4801C4CEA113102D0404261EB410175
S1132E2013F0004F4FEA03334CEA133302D05242FB
S1132E3063EB430394EA050F00F0A780A4F10104B7
S1132E40D5F1200E0DDB02FA0EFC22FA05F28018F1
S1132E5041F1000103FA0EF2801843FA05F35941D7
S1132E600EE0A5F120050EF1200E012A03FA0EFC56
S1132E7028BF4CF0020C43FA05F3C01851EBE37180
S1132E8001F0004507D54FF0000EDCF1000C7EEB9D
S1132E9000006EEB0101B1F5801F1BD3B1F5001FDB
S1132EA00CD349085FEA30004FEA3C0C04F10104FA
S1132EB04FEA445212F5800F80F09A80BCF1004F23
S1132EC008BF5FEA500C50F1000041EB045141EAA5
S1132ED0050130BD5FEA4C0C404141EB010111F4A6
S1132EE0801FA4F10104E9D191F0000F04BF014651
S1132EF00020B1FA81F308BF2033A3F10B03B3F12F
S1132F0020020CDA0C3208DD02F1140CC2F10C02BE
S1132F1001FA0CF021FA02F10CE002F11402D8BF1C
S1132F20C2F1200C01FA02F120FA0CFCDCBF41EAE8
S1132F300C019040E41AA2BF01EB0451294330BDB7
S1132F406FEA04041F3C1CDA0C340EDC04F1140494
S1132F50C4F1200220FA04F001FA02F340EA03006B
S1132F6021FA04F345EA030130BDC4F10C04C4F1B1
S1132F70200220FA02F001FA04F340EA0300294691
S1132F8030BD21FA04F0294630BD94F0000F83F4DB
S1132F90801306BF81F480110134013D4EE77FEABE
S1132FA0645C18BF7FEA655C29D094EA050F08BF0A
S1132FB090EA020F05D054EA000C04BF19461046EB
S1132FC030BD91EA030F1EBF0021002030BD5FEA2F
S1132FD0545C05D14000494128BF41F0004130BD57
S1132FE014F580043CBF01F5801130BD01F00045AB
S1132FF045F0FE4141F470014FF0000030BD7FEA1E
S1133000645C1ABF194610467FEA655C1CBF0B4618
S1133010024650EA013406BF52EA033591EA030F2F
S113302041F4002130BD00BF90F0000F04BF002127
S1133030704730B54FF4806404F132044FF000055A
S11330404FF0000150E700BF90F0000F04BF0021D3
S1133050704730B54FF4806404F1320410F0004539
S113306048BF40424FF000013EE700BF42004FEA34
S1133070E2014FEA31014FEA02701FBF12F07F43B1
S113308093F07F4F81F06051704732F07F4208BF68
S1133090704793F07F4F04BF41F40021704730B56F
S11330A04FF4607401F0004521F000411CE700BFBB
S11330B050EA010208BF704730B54FF000050AE03E
S11330C050EA010208BF704730B511F0004502D53F
S11330D0404261EB41014FF4806404F132045FEA41
S11330E0915C3FF4D8AE4FF003025FEADC0C18BFEA
S11330F003325FEADC0C18BF033202EBDC02C2F1DC
S1133100200300FA03FC20FA02F001FA03FE40EA6D
S11331100E0021FA02F11444BDE600BF70B54FF071
S1133120FF0C4CF4E06C1CEA11541DBF1CEA13554F
S113313094EA0C0F95EA0C0F00F0DEF82C4481EAB7
S1133140030621EA4C5123EA4C5350EA013518BFD7
S113315052EA033541F4801143F4801338D0A0FBC4
S113316002CE4FF00005E1FB02E506F00042E0FB71
S113317003E54FF00006E1FB03569CF0000F18BF77
S11331804EF0010EA4F1FF04B6F5007F64F540741F
S113319004D25FEA4E0E6D4146EB060642EAC621B2
S11331A041EA55514FEAC52040EA5E504FEACE2E1F
S11331B0B4F1FD0C88BFBCF5E06F1ED8BEF1004F22
S11331C008BF5FEA500E50F1000041EB045170BD9E
S11331D006F0004646EA010140EA020081EA0301E2
S11331E0B4EB5C04C2BFD4EB0C0541EA045170BDDE
S11331F041F480114FF0000E013C00F3AB8014F158
S1133200360FDEBF002001F0004170BDC4F10004A0
S1133210203C35DA0C341BDC04F11404C4F1200521
S113322000FA05F320FA04F001FA05F240EA02007C
S113323001F0004221F0004110EBD37021FA04F6B2
S113324042EB06015EEA430E08BF20EAD37070BD6C
S1133250C4F10C04C4F1200500FA04F320FA05F0CB
S113326001FA04F240EA020001F0004110EBD370CD
S113327041F100015EEA430E08BF20EAD37070BD3D
S1133280C4F1200500FA05F24EEA020E20FA04F316
S113329001FA05F243EA020321FA04F001F00041C5
S11332A021FA04F220EA020000EBD3705EEA430E36
S11332B008BF20EAD37070BD94F0000F0FD101F065
S11332C00046400041EB010111F4801F08BF013C9E
S11332D0F7D041EA060195F0000F18BF704703F0DC
S11332E00046520043EB030313F4801F08BF013D63
S11332F0F7D043EA0603704794EA0C0F0CEA13551F
S113330018BF95EA0C0F0CD050EA410618BF52EAD8
S11333104306D1D181EA030101F000414FF00000DE
S113332070BD50EA410606BF1046194652EA4306EC
S113333019D094EA0C0F02D150EA013613D195EA60
S11333400C0F05D152EA03361CBF104619460AD1A8
S113335081EA030101F0004141F0FE4141F47001B2
S11333604FF0000070BD41F0FE4141F4780170BDA2
S113337070B54FF0FF0C4CF4E06C1CEA11541DBF07
S11333801CEA135594EA0C0F95EA0C0F00F0A7F809
S1133390A4EB050481EA030E52EA03354FEA013136
S11333A000F088804FEA03334FF0805545EA131349
S11333B043EA12634FEA022245EA111545EA106511
S11333C04FEA00260EF000419D4208BF964244F1A8
S11333D0FD0404F5407402D25B084FEA3202B61AC7
S11333E065EB03055B084FEA32024FF480104FF49B
S11333F0002CB6EB020E75EB030E22BFB61A75460F
S113340040EA0C005B084FEA3202B6EB020E75EBA1
S1133410030E22BFB61A754640EA5C005B084FEA09
S11334203202B6EB020E75EB030E22BFB61A7546D6
S113343040EA9C005B084FEA3202B6EB020E75EBE1
S1133440030E22BFB61A754640EADC0055EA060EA2
S113345018D04FEA051545EA16754FEA06164FEAE5
S1133460C30343EA52734FEAC2025FEA1C1CC0D191
S113347011F4801F0BD141EA00014FF000004FF01E
S1133480004CB6E711F4801F04BF01430020B4F1DF
S1133490FD0C88BFBCF5E06F3FF6AFAEB5EB030C97
S11334A004BFB6EB020C5FEA500C50F1000041EB94
S11334B0045170BD0EF0004E4EEA113114EB5C0461
S11334C0C2BFD4EB0C0541EA045170BD41F4801134
S11334D04FF0000E013C90E645EA060E8DE60CEA3C
S11334E0135594EA0C0F08BF95EA0C0F3FF43BAF59
S11334F094EA0C0F0AD150EA01347FF434AF95EA10
S11335000C0F7FF425AF104619462CE795EA0C0FF3
S113351006D152EA03353FF4FDAE1046194622E7C0
S113352050EA410618BF52EA43067FF4C5AE50EA9A
S113353041047FF40DAF52EA43057FF4EBAE12E78A
S11335404A0011D212F5001211D20DD56FF478731E
S1133550B3EB62520ED44FEAC12343F0004343EA73
S1133560505323FA02F070474FF00000704750EABE
S1133570013002D14FF0FF3070474FF00000704728
S113358008B5074B044613B10021AFF30080054B87
S11335901868836A03B19847204600F031F800BFE9
S11335A000000000DC37000070B50D4E0D4CA41B6C
S11335B0A4100025A54209D10B4E0C4C00F022F8B2
S11335C0A41BA4100025A54205D170BD56F82530D2
S11335D098470135EEE756F8253098470135F2E76C
S11335E08800002088000020880000208C00002033
S11335F002440346934200D1704703F8011BF9E7E4
S1133600FEE700BFF8B500BFF8BC08BC9E46704793
S1133610F8B500BFF8BC08BC9E4670470000000027
S11336205FF800F0750000202E2E2F656D6C696226
S11336302F656D5F636D752E6300000040787D011A
S113364000000000005A620200010000C0CF6A00BE
S113365002000000809FD50002010000002D31010E
S1133660020200002E2E2F656D6C69622F656D5F5E
S1133670656D752E630000002E2E2F656D6C6962DA
S11336802F656D5F6770696F2E630000633A5C732A
S1133690696C69636F6E6C6162735C73696D706C85
S11336A0696369747973747564696F5C76345C6496
S11336B06576656C6F7065725C73646B735C67656B
S11336C0636B6F5F73646B5F73756974655C76328B
S11336D02E375C706C6174666F726D5C656D6C69BD
S11336E0625C696E635C656D5F6770696F2E68000C
S11336F080841E00404B4C00809FD50080841E00B7
S113370040548900002D31012E2E2F656D6C6962A5
S11337102F656D5F6932632E63000000080911088C
S11337202E2E2F656D6C69622F656D5F6C657469F3
S11337306D65722E630000002E2E2F7372632F535B
S11337406F757263655F46696C65732F6170702E67
S1133750630000002E2E2F7372632F536F757263F4
S1133760655F46696C65732F6932632E63000000E0
S11337702E2E2F7372632F536F757263655F4669C4
S11337806C65732F6C6574696D65722E630000003F
S11337902E2E2F7372632F536F757263655F4669A4
S11337A06C65732F736C6565705F726F7574696E89
S11337B065732E63000000000002080705000A007C
S11337C0C8000000FFFF010001000000A000680124
S11337D00A200706020A0407000000001400002063
S10737E000000000E1
S10B37E468C9FF7F0100000029
S11337ECC0EA2101005A6202C0EA210100800000F3
S11337FCC0EA2101000000000000000000000000ED
S113380C00000000000000000000000000000000A8
S113381C0000000000000000000000000000000098
S113382C0000000000000000000000000000000088
S113383C0000000000000000000000000000000078
S113384C0000000000000000000000000000000068
S113385C00000000034A136843F0004330BF1360B8
S113386C704700BF4C310E40310100000D010000C7
S90301C13A
